:100000000C9434000C9449000C9449000C94490061
:100010000C9449000C9449000C9449000C9449003C
:100020000C9449000C9449000C9449000C9449002C
:100030000C9449000C9449000C9449000C9449001C
:100040000C9449000C9449000C9449000C9449000C
:100050000C9449000C9449000C9449000C944900FC
:100060000C9449000C94490011241FBECFEFD8E036
:10007000DEBFCDBF11E0A0E0B1E0ECE3F5E002C0EF
:1000800005900D92AE34B107D9F70E9479020C9415
:100090009C020C9400001092B90084E18093B80097
:1000A00084E08093BC00089584EA8093BC00809132
:1000B000BC008823E4F7089584E98093BC008FE9AD
:1000C0009FE00197F1F700C0000008958093BB0006
:1000D00084EC8093BC008091BC008823E4F70895F1
:1000E0000E9454008EE40E9466008FEF0E9466001A
:1000F0002FEF89EF90E0215080409040E1F700C061
:10010000000084E30E94660080E30E9466008FE3A3
:100110009CE90197F1F700C0000084E30E946600AB
:1001200080E30E9466008FE99FE00197F1F700C02D
:10013000000084E30E94660080E30E9466008FE96D
:100140009FE00197F1F700C0000084E20E94660082
:1001500080E20E9466008FE99FE00197F1F700C0FE
:1001600000000E945C000895CF93DF93C82F0E9487
:1001700054008EE40E946600DC2FD07F8D2F8C60AF
:100180000E9466008D2F88600E94660080E1C89FF3
:10019000E00111248C2F8C600E9466008C2F0E943D
:1001A00066000E945C008FE39FE10197F1F700C0B9
:1001B00000008FE39FE10197F1F700C00000DF919D
:1001C000CF9108950E944B000E9470008CE20E9423
:1001D000B4008CE00E94B40086E00E94B40080E885
:1001E0000E94B40080EC0E94B40080E40E94B4003D
:1001F0000895CF93DF93C82F0E9454008EE40E948D
:100200006600DC2FD07F8D2F8D600E9466008D2FC1
:1002100089600E94660080E1C89FE00111248C2F54
:100220008D600E9466008C2F89600E9466000E948B
:100230005C008FE39FE10197F1F700C000008FE3BE
:100240009FE10197F1F700C00000DF91CF91089581
:1002500081E00E94B4008FE39FE10197F1F700C0B5
:10026000000008950F931F93CF93DF938C01C0E09C
:10027000D0E003C00E94F9002196F801EC0FFD1FA9
:1002800080818111F7CFDF91CF911F910F91089558
:10029000CF92DF92EF92FF920F931F93CF93DF9352
:1002A0006C0100E010E0C0E0D0E02BC0C031D1050F
:1002B00021F480EC0E94B40014C0C032D10589F44E
:1002C00081E00E94B4002FEF81EE94E02150804045
:1002D0009040E1F700C0000080E80E94B400C0E058
:1002E000D0E0F70180810E94F900FFEF23EC89E064
:1002F000F15020408040E1F700C0000021960F5FE0
:100300001F4F7601E00EF11EF70180818111CECFE3
:10031000DF91CF911F910F91FF90EF90DF90CF90E1
:1003200008950F931F93CF93883098F48B0190E03A
:100330000896880F880F880F0E94B400C0E007C09D
:10034000F801EC0FF11D80810E94F900CF5FC830E9
:10035000B8F3CF911F910F91089581E00E94B400EE
:100360008FE39CE90197F1F700C0000008950F9317
:100370001F93CF93DF93CDB7DEB7A8970FB6F8944E
:10038000DEBF0FBECDBF88E0E0E0F1E0DE011196F8
:1003900001900D928A95E1F78E01075F1F4F88E06B
:1003A000F80111928A95E9F788E0E8E0F1E0DE01D2
:1003B000519601900D928A95E1F788E0E0E1F1E035
:1003C000DE01599601900D928A95E1F788E0E8E107
:1003D000F1E0DE01919601900D928A95E1F7B80166
:1003E00080E00E949101B80181E00E949101B80172
:1003F00082E00E949101BE016F5F7F4F83E00E9407
:100400009101FFEF27EA81E6F15020408040E1F7BB
:1004100000C00000BE016F5E7F4F83E00E9491012B
:100420009FEFE7EAF1E69150E040F040E1F700C0CD
:100430000000BE01675E7F4F83E00E9491012FEFB5
:1004400087EA91E6215080409040E1F700C000002B
:10045000BE016F5D7F4F83E00E949101EFEFF7EAED
:1004600021E6E150F0402040E1F700C00000B80173
:1004700084E00E949101B80185E00E949101B801D9
:1004800086E00E949101B80187E00E94910180EC12
:100490000E94B40000E010E008C0802F0E94F90024
:1004A00080E20E94F9000F5F1F4F08301105ACF386
:1004B000A8960FB6F894DEBF0FBECDBFDF91CF91E7
:1004C0001F910F91089520E030E00FC095B180E2B8
:1004D000892785B94FEF89E698E1415080409040E7
:1004E000E1F700C000002F5F3F4F2B30310574F360
:1004F00008950E9496020E9463020E944B000E948F
:10050000E2000E94280180E291E00E9448010E94DE
:10051000AD010E94E20080E890E00E94B40083E414
:1005200091E00E9432010E94B701FDCF8FEF84B9A4
:0C0530008AB18C608AB90895F894FFCF5E
:10053C0004021E0F0F1E0204000000041F0E0E0A00
:10054C0004080F1E1E0F08040A0E0E1F04000000E4
:10055C004E4F2054454E474F204E41444120504968
:10056C004E43484520474F424945524E4F204D413E
:0E057C004C4F004C4F4144494E472E2E2E004E
:04000003000000A851
:00000001FF
