:100000000C9434000C9449000C9449000C94490061
:100010000C9449000C9449000C9449000C9449003C
:100020000C9449000C9449000C9449000C9449002C
:100030000C9449000C9449000C9449000C9449001C
:100040000C9449000C9449000C9449000C9449000C
:100050000C9449000C9449000C9449000C944900FC
:100060000C9449000C94490011241FBECFEFD8E036
:10007000DEBFCDBF11E0A0E0B1E0E2E7F4E002C0F6
:1000800005900D92AE39B107D9F70E94BD010C94CD
:1000900037020C9400001092B90084E18093B800FC
:1000A00084E08093BC00089584EA8093BC00809132
:1000B000BC008823E4F7089584E98093BC008FE9AD
:1000C0009FE00197F1F700C0000008958093BB0006
:1000D00084EC8093BC008091BC008823E4F70895F1
:1000E0000E9454008EE40E9466008FEF0E9466001A
:1000F0002FEF89EF90E0215080409040E1F700C061
:10010000000084E30E94660080E30E9466008FE3A3
:100110009CE90197F1F700C0000084E30E946600AB
:1001200080E30E9466008FE99FE00197F1F700C02D
:10013000000084E30E94660080E30E9466008FE96D
:100140009FE00197F1F700C0000084E20E94660082
:1001500080E20E9466008FE99FE00197F1F700C0FE
:1001600000000E945C000895CF93DF93C82F0E9487
:1001700054008EE40E946600DC2FD07F8D2F8C60AF
:100180000E9466008D2F88600E94660080E1C89FF3
:10019000E00111248C2F8C600E9466008C2F0E943D
:1001A00066000E945C008FE39FE10197F1F700C0B9
:1001B00000008FE39FE10197F1F700C00000DF919D
:1001C000CF9108950E944B000E9470008CE20E9423
:1001D000B4008CE00E94B40086E00E94B40080E885
:1001E0000E94B40080EC0E94B4000895CF93DF9386
:1001F000C82F0E9454008EE40E946600DC2FD07F3E
:100200008D2F8D600E9466008D2F89600E94660090
:1002100080E1C89FE00111248C2F8D600E94660050
:100220008C2F89600E9466000E945C008FE39FE132
:100230000197F1F700C000008FE39FE10197F1F70C
:1002400000C00000DF91CF91089581E00E94B400CA
:100250008FE39FE10197F1F700C0000008950F932D
:100260001F93CF93DF938C01C0E0D0E003C00E94C6
:10027000F6002196F801EC0FFD1F80818111F7CF68
:10028000DF91CF911F910F910895CF92DF92EF925E
:10029000FF920F931F93CF93DF936C0100E010E068
:1002A000C0E0D0E028C0C031D10521F480EC0E942C
:1002B000B40011C0C032D10571F481E00E94B400D5
:1002C0008FE19EE40197F1F700C0000080E80E94F2
:1002D000B400C0E0D0E0F70180810E94F600FFEF9B
:1002E0002BED85E0F15020408040E1F700C0000098
:1002F00021960F5F1F4F7601E00EF11EF7018081FE
:100300008111D1CFDF91CF911F910F91FF90EF908D
:10031000DF90CF9008950F931F93CF93883098F478
:100320008B0190E00896880F880F880F0E94B40018
:10033000C0E007C0F801EC0FF11D80810E94F600BB
:10034000CF5FC830B8F3CF911F910F91089520E08F
:1003500030E00FC095B180E2892785B94FEF89E67B
:1003600098E1415080409040E1F700C000002F5FCD
:100370003F4F2B30310574F30895CF93DF93CDB702
:10038000DEB768970FB6F894DEBF0FBECDBF0E94F0
:1003900031020E94A7010E944B000E94E2000E94CD
:1003A000250180E191E00E9445010E94250188E03D
:1003B000E0E0F1E0DE01119601900D928A95E1F7FF
:1003C00088E0E8E0F1E0DE01199601900D928A954F
:1003D000E1F78E010F5E1F4F88E0F80111928A95B8
:1003E000E9F70E94E200BE016F5F7F4F80E00E944C
:1003F0008B01BE01675F7F4F81E00E948B01B801D6
:1004000082E00E948B01B80183E00E948B01B80159
:1004100084E00E948B01B80185E00E948B01B80145
:1004200086E00E948B01BE016F5F7F4F87E00E94D4
:100430008B0180E890E00E94B40086E991E00E9480
:100440002F0180EC90E00E94B40010E007C0812FE3
:100450000E94F60080E20E94F6001F5F1830B8F399
:10046000FFCF8FEF84B98AB18C608AB90895F89470
:02047000FFCFBC
:10047200000A1F1F0E04000004021E0F0F1E0204BA
:100482005669766573206163656E7475616E646F1B
:1004920020646961206120646961206D6973206450
:1004A20065666563746F732C726573616C74616EDB
:1004B200646F206C6F20717565206E6F206D6520F2
:1004C20073616C65206269656E20636F6D70617225
:1004D200616E646F6D6520636F6E20746F646F73FD
:1004E20020517565206465626961207365722063BD
:1004F2006F6D6F2065737465207920636F6D6F2057
:0E050200617175656C004C4F4144494E4700D5
:04000003000000A851
:00000001FF
